{
  "_format": "hh-sol-artifact-1",
  "contractName": "ERC8004AgentRegistry",
  "sourceName": "contracts/ERC8004AgentRegistry.sol",
  "abi": [
    {
      "anonymous": false,
      "inputs": [
        {
          "indexed": true,
          "internalType": "uint256",
          "name": "actionId",
          "type": "uint256"
        },
        {
          "indexed": true,
          "internalType": "uint256",
          "name": "agentId",
          "type": "uint256"
        },
        {
          "indexed": false,
          "internalType": "string",
          "name": "reason",
          "type": "string"
        },
        {
          "indexed": true,
          "internalType": "address",
          "name": "flagger",
          "type": "address"
        }
      ],
      "name": "ActionFlagged",
      "type": "event"
    },
    {
      "anonymous": false,
      "inputs": [
        {
          "indexed": true,
          "internalType": "uint256",
          "name": "actionId",
          "type": "uint256"
        },
        {
          "indexed": true,
          "internalType": "uint256",
          "name": "agentId",
          "type": "uint256"
        },
        {
          "indexed": false,
          "internalType": "string",
          "name": "actionType",
          "type": "string"
        },
        {
          "indexed": false,
          "internalType": "uint256",
          "name": "timestamp",
          "type": "uint256"
        }
      ],
      "name": "ActionLogged",
      "type": "event"
    },
    {
      "anonymous": false,
      "inputs": [
        {
          "indexed": true,
          "internalType": "uint256",
          "name": "agentId",
          "type": "uint256"
        },
        {
          "indexed": true,
          "internalType": "address",
          "name": "deactivator",
          "type": "address"
        }
      ],
      "name": "AgentDeactivated",
      "type": "event"
    },
    {
      "anonymous": false,
      "inputs": [
        {
          "indexed": true,
          "internalType": "uint256",
          "name": "agentId",
          "type": "uint256"
        },
        {
          "indexed": false,
          "internalType": "string",
          "name": "name",
          "type": "string"
        },
        {
          "indexed": true,
          "internalType": "address",
          "name": "creator",
          "type": "address"
        }
      ],
      "name": "AgentRegistered",
      "type": "event"
    },
    {
      "anonymous": false,
      "inputs": [
        {
          "indexed": true,
          "internalType": "uint256",
          "name": "agentId",
          "type": "uint256"
        },
        {
          "indexed": false,
          "internalType": "string[]",
          "name": "newCapabilities",
          "type": "string[]"
        }
      ],
      "name": "CapabilitiesUpdated",
      "type": "event"
    },
    {
      "inputs": [
        {
          "internalType": "uint256",
          "name": "",
          "type": "uint256"
        }
      ],
      "name": "actions",
      "outputs": [
        {
          "internalType": "uint256",
          "name": "id",
          "type": "uint256"
        },
        {
          "internalType": "uint256",
          "name": "agentId",
          "type": "uint256"
        },
        {
          "internalType": "string",
          "name": "actionType",
          "type": "string"
        },
        {
          "internalType": "bytes",
          "name": "actionData",
          "type": "bytes"
        },
        {
          "internalType": "bytes32",
          "name": "resultHash",
          "type": "bytes32"
        },
        {
          "internalType": "uint256",
          "name": "timestamp",
          "type": "uint256"
        },
        {
          "internalType": "bool",
          "name": "flagged",
          "type": "bool"
        },
        {
          "internalType": "string",
          "name": "flagReason",
          "type": "string"
        }
      ],
      "stateMutability": "view",
      "type": "function"
    },
    {
      "inputs": [
        {
          "internalType": "uint256",
          "name": "",
          "type": "uint256"
        },
        {
          "internalType": "uint256",
          "name": "",
          "type": "uint256"
        }
      ],
      "name": "agentActions",
      "outputs": [
        {
          "internalType": "uint256",
          "name": "id",
          "type": "uint256"
        },
        {
          "internalType": "uint256",
          "name": "agentId",
          "type": "uint256"
        },
        {
          "internalType": "string",
          "name": "actionType",
          "type": "string"
        },
        {
          "internalType": "bytes",
          "name": "actionData",
          "type": "bytes"
        },
        {
          "internalType": "bytes32",
          "name": "resultHash",
          "type": "bytes32"
        },
        {
          "internalType": "uint256",
          "name": "timestamp",
          "type": "uint256"
        },
        {
          "internalType": "bool",
          "name": "flagged",
          "type": "bool"
        },
        {
          "internalType": "string",
          "name": "flagReason",
          "type": "string"
        }
      ],
      "stateMutability": "view",
      "type": "function"
    },
    {
      "inputs": [
        {
          "internalType": "uint256",
          "name": "",
          "type": "uint256"
        }
      ],
      "name": "agents",
      "outputs": [
        {
          "internalType": "uint256",
          "name": "id",
          "type": "uint256"
        },
        {
          "internalType": "string",
          "name": "name",
          "type": "string"
        },
        {
          "internalType": "string",
          "name": "version",
          "type": "string"
        },
        {
          "internalType": "address",
          "name": "creator",
          "type": "address"
        },
        {
          "internalType": "uint256",
          "name": "actionCount",
          "type": "uint256"
        },
        {
          "internalType": "uint256",
          "name": "registeredAt",
          "type": "uint256"
        },
        {
          "internalType": "bool",
          "name": "active",
          "type": "bool"
        }
      ],
      "stateMutability": "view",
      "type": "function"
    },
    {
      "inputs": [
        {
          "internalType": "address",
          "name": "",
          "type": "address"
        },
        {
          "internalType": "uint256",
          "name": "",
          "type": "uint256"
        }
      ],
      "name": "creatorAgents",
      "outputs": [
        {
          "internalType": "uint256",
          "name": "",
          "type": "uint256"
        }
      ],
      "stateMutability": "view",
      "type": "function"
    },
    {
      "inputs": [
        {
          "internalType": "uint256",
          "name": "agentId",
          "type": "uint256"
        }
      ],
      "name": "deactivateAgent",
      "outputs": [],
      "stateMutability": "nonpayable",
      "type": "function"
    },
    {
      "inputs": [
        {
          "internalType": "uint256",
          "name": "actionId",
          "type": "uint256"
        },
        {
          "internalType": "string",
          "name": "reason",
          "type": "string"
        }
      ],
      "name": "flagAction",
      "outputs": [],
      "stateMutability": "nonpayable",
      "type": "function"
    },
    {
      "inputs": [
        {
          "internalType": "uint256",
          "name": "agentId",
          "type": "uint256"
        },
        {
          "internalType": "uint256",
          "name": "offset",
          "type": "uint256"
        },
        {
          "internalType": "uint256",
          "name": "limit",
          "type": "uint256"
        }
      ],
      "name": "getActions",
      "outputs": [
        {
          "components": [
            {
              "internalType": "uint256",
              "name": "id",
              "type": "uint256"
            },
            {
              "internalType": "uint256",
              "name": "agentId",
              "type": "uint256"
            },
            {
              "internalType": "string",
              "name": "actionType",
              "type": "string"
            },
            {
              "internalType": "bytes",
              "name": "actionData",
              "type": "bytes"
            },
            {
              "internalType": "bytes32",
              "name": "resultHash",
              "type": "bytes32"
            },
            {
              "internalType": "uint256",
              "name": "timestamp",
              "type": "uint256"
            },
            {
              "internalType": "bool",
              "name": "flagged",
              "type": "bool"
            },
            {
              "internalType": "string",
              "name": "flagReason",
              "type": "string"
            }
          ],
          "internalType": "struct ERC8004AgentRegistry.Action[]",
          "name": "",
          "type": "tuple[]"
        }
      ],
      "stateMutability": "view",
      "type": "function"
    },
    {
      "inputs": [
        {
          "internalType": "uint256",
          "name": "agentId",
          "type": "uint256"
        }
      ],
      "name": "getAgent",
      "outputs": [
        {
          "internalType": "string",
          "name": "name",
          "type": "string"
        },
        {
          "internalType": "string",
          "name": "version",
          "type": "string"
        },
        {
          "internalType": "address",
          "name": "creator",
          "type": "address"
        },
        {
          "internalType": "string[]",
          "name": "capabilities",
          "type": "string[]"
        },
        {
          "internalType": "uint256",
          "name": "actionCount",
          "type": "uint256"
        },
        {
          "internalType": "uint256",
          "name": "registeredAt",
          "type": "uint256"
        },
        {
          "internalType": "bool",
          "name": "active",
          "type": "bool"
        }
      ],
      "stateMutability": "view",
      "type": "function"
    },
    {
      "inputs": [
        {
          "internalType": "address",
          "name": "creator",
          "type": "address"
        }
      ],
      "name": "getCreatorAgents",
      "outputs": [
        {
          "internalType": "uint256[]",
          "name": "",
          "type": "uint256[]"
        }
      ],
      "stateMutability": "view",
      "type": "function"
    },
    {
      "inputs": [],
      "name": "getTotalAgents",
      "outputs": [
        {
          "internalType": "uint256",
          "name": "",
          "type": "uint256"
        }
      ],
      "stateMutability": "view",
      "type": "function"
    },
    {
      "inputs": [
        {
          "internalType": "uint256",
          "name": "agentId",
          "type": "uint256"
        },
        {
          "internalType": "string",
          "name": "capability",
          "type": "string"
        }
      ],
      "name": "hasCapability",
      "outputs": [
        {
          "internalType": "bool",
          "name": "",
          "type": "bool"
        }
      ],
      "stateMutability": "view",
      "type": "function"
    },
    {
      "inputs": [
        {
          "internalType": "uint256",
          "name": "agentId",
          "type": "uint256"
        },
        {
          "internalType": "string",
          "name": "actionType",
          "type": "string"
        },
        {
          "internalType": "bytes",
          "name": "actionData",
          "type": "bytes"
        },
        {
          "internalType": "bytes32",
          "name": "resultHash",
          "type": "bytes32"
        }
      ],
      "name": "logAction",
      "outputs": [
        {
          "internalType": "uint256",
          "name": "",
          "type": "uint256"
        }
      ],
      "stateMutability": "nonpayable",
      "type": "function"
    },
    {
      "inputs": [
        {
          "internalType": "string",
          "name": "name",
          "type": "string"
        },
        {
          "internalType": "string",
          "name": "version",
          "type": "string"
        },
        {
          "internalType": "string[]",
          "name": "capabilities",
          "type": "string[]"
        }
      ],
      "name": "registerAgent",
      "outputs": [
        {
          "internalType": "uint256",
          "name": "",
          "type": "uint256"
        }
      ],
      "stateMutability": "nonpayable",
      "type": "function"
    },
    {
      "inputs": [
        {
          "internalType": "uint256",
          "name": "agentId",
          "type": "uint256"
        },
        {
          "internalType": "string[]",
          "name": "newCapabilities",
          "type": "string[]"
        }
      ],
      "name": "updateCapabilities",
      "outputs": [],
      "stateMutability": "nonpayable",
      "type": "function"
    }
  ],
  "bytecode": "0x608060405260016000556001805534801561001957600080fd5b50611ec6806100296000396000f3fe608060405234801561001057600080fd5b50600436106100ea5760003560e01c806381070f1e1161008c5780639d60c141116100665780639d60c14114610202578063dcfc01f214610225578063e81baaaf14610238578063f3021f631461025857600080fd5b806381070f1e146101b557806383240f83146101c85780638eff9c8a146101ef57600080fd5b80633731a16f116100c85780633731a16f14610153578063513856c8146101695780635a75ec3b1461018f5780637340b154146101a257600080fd5b806311ba6b4a146100ef578063268c584a146101045780632de5aaf71461012d575b600080fd5b6101026100fd36600461157c565b61026b565b005b610117610112366004611595565b610325565b6040516101249190611607565b60405180910390f35b61014061013b36600461157c565b610696565b6040516101249796959493929190611742565b61015b610978565b604051908152602001610124565b61017c61017736600461157c565b61098e565b60405161012497969594939291906117ac565b61010261019d3660046118cf565b610ae7565b61015b6101b0366004611932565b610bb4565b61015b6101c336600461195c565b610be5565b6101db6101d636600461157c565b610e9d565b6040516101249897969594939291906119e5565b61015b6101fd366004611aef565b61107f565b6102156102103660046118cf565b611172565b6040519015158152602001610124565b610102610233366004611b77565b6112e8565b61024b610246366004611bb4565b6113b5565b6040516101249190611bcf565b6101db610266366004611c13565b611421565b8060008111801561027d575060005481105b6102a25760405162461bcd60e51b815260040161029990611c35565b60405180910390fd5b60008281526002602052604090206003015482906001600160a01b031633146102dd5760405162461bcd60e51b815260040161029990611c63565b600083815260026020526040808220600701805460ff1916905551339185917f8648ea00a281362b7d17874fe879e4cf49d332d95bd73b71a649f9da06db1d4c9190a3505050565b606083600081118015610339575060005481105b6103555760405162461bcd60e51b815260040161029990611c35565b600085815260036020526040902080548086106103a757604080516000808252602082019092529061039d565b61038a61146d565b8152602001906001900390816103825790505b509350505061068e565b60006103b38688611ca4565b9050818111156103c05750805b60006103cc8883611cbd565b905060008167ffffffffffffffff8111156103e9576103e9611809565b60405190808252806020026020018201604052801561042257816020015b61040f61146d565b8152602001906001900390816104075790505b50905060005b82811015610686578561043b828c611ca4565b8154811061044b5761044b611cd0565b906000526020600020906008020160405180610100016040529081600082015481526020016001820154815260200160028201805461048990611ce6565b80601f01602080910402602001604051908101604052809291908181526020018280546104b590611ce6565b80156105025780601f106104d757610100808354040283529160200191610502565b820191906000526020600020905b8154815290600101906020018083116104e557829003601f168201915b5050505050815260200160038201805461051b90611ce6565b80601f016020809104026020016040519081016040528092919081815260200182805461054790611ce6565b80156105945780601f1061056957610100808354040283529160200191610594565b820191906000526020600020905b81548152906001019060200180831161057757829003601f168201915b50505091835250506004820154602082015260058201546040820152600682015460ff16151560608201526007820180546080909201916105d490611ce6565b80601f016020809104026020016040519081016040528092919081815260200182805461060090611ce6565b801561064d5780601f106106225761010080835404028352916020019161064d565b820191906000526020600020905b81548152906001019060200180831161063057829003601f168201915b50505050508152505082828151811061066857610668611cd0565b6020026020010181905250808061067e90611d20565b915050610428565b509550505050505b509392505050565b606080600060606000806000876000811180156106b4575060005481105b6106d05760405162461bcd60e51b815260040161029990611c35565b6000600260008b8152602001908152602001600020604051806101000160405290816000820154815260200160018201805461070b90611ce6565b80601f016020809104026020016040519081016040528092919081815260200182805461073790611ce6565b80156107845780601f1061075957610100808354040283529160200191610784565b820191906000526020600020905b81548152906001019060200180831161076757829003601f168201915b5050505050815260200160028201805461079d90611ce6565b80601f01602080910402602001604051908101604052809291908181526020018280546107c990611ce6565b80156108165780601f106107eb57610100808354040283529160200191610816565b820191906000526020600020905b8154815290600101906020018083116107f957829003601f168201915b505050918352505060038201546001600160a01b0316602080830191909152600483018054604080518285028101850182528281529401939260009084015b8282101561090157838290600052602060002001805461087490611ce6565b80601f01602080910402602001604051908101604052809291908181526020018280546108a090611ce6565b80156108ed5780601f106108c2576101008083540402835291602001916108ed565b820191906000526020600020905b8154815290600101906020018083116108d057829003601f168201915b505050505081526020019060010190610855565b50505050815260200160058201548152602001600682015481526020016007820160009054906101000a900460ff161515151581525050905080602001518160400151826060015183608001518460a001518560c001518660e0015198509850985098509850985098505050919395979092949650565b600060016000546109899190611cbd565b905090565b600260205260009081526040902080546001820180549192916109b090611ce6565b80601f01602080910402602001604051908101604052809291908181526020018280546109dc90611ce6565b8015610a295780601f106109fe57610100808354040283529160200191610a29565b820191906000526020600020905b815481529060010190602001808311610a0c57829003601f168201915b505050505090806002018054610a3e90611ce6565b80601f0160208091040260200160405190810160405280929190818152602001828054610a6a90611ce6565b8015610ab75780601f10610a8c57610100808354040283529160200191610ab7565b820191906000526020600020905b815481529060010190602001808311610a9a57829003601f168201915b5050505060038301546005840154600685015460079095015493946001600160a01b039092169390925060ff1687565b600082118015610af8575060015482105b610b3c5760405162461bcd60e51b81526020600482015260156024820152741058dd1a5bdb88191bd95cc81b9bdd08195e1a5cdd605a1b6044820152606401610299565b600082815260046020526040902060068101805460ff1916600117905560078101610b678382611d88565b50336001600160a01b03168160010154847f693112d3b2a3621cb36af250162a747c7ba159b83907a23d5f418664a41af77d85604051610ba79190611e48565b60405180910390a4505050565b60056020528160005260406000208181548110610bd057600080fd5b90600052602060002001600091509150505481565b600084600081118015610bf9575060005481105b610c155760405162461bcd60e51b815260040161029990611c35565b600086815260026020526040902060070154869060ff16610c6e5760405162461bcd60e51b81526020600482015260136024820152724167656e74206973206e6f742061637469766560681b6044820152606401610299565b60008781526002602052604090206003015487906001600160a01b03163314610ca95760405162461bcd60e51b815260040161029990611c63565b6001805460009182610cba83611d20565b90915550604080516101008101825282815260208082018d81528284018d8152606084018d9052608084018c90524260a0850152600060c085018190528551808501875281815260e086015286815260049093529390912082518155905160018201559151929350918291906002820190610d359082611d88565b5060608201516003820190610d4a9082611d88565b506080820151600482015560a0820151600582015560c082015160068201805460ff191691151591909117905560e08201516007820190610d8b9082611d88565b50505060008a815260036020908152604080832080546001818101835591855293839020855160089095020193845591840151918301919091558201518291906002820190610dda9082611d88565b5060608201516003820190610def9082611d88565b506080820151600482015560a0820151600582015560c082015160068201805460ff191691151591909117905560e08201516007820190610e309082611d88565b50505060008a8152600260205260408120600501805491610e5083611d20565b919050555089827f25f2fec56e63b9f7bcf177df324acfaeb1aa13cc5db445e5a8a966a8211771da8b42604051610e88929190611e5b565b60405180910390a35098975050505050505050565b60046020526000908152604090208054600182015460028301805492939192610ec590611ce6565b80601f0160208091040260200160405190810160405280929190818152602001828054610ef190611ce6565b8015610f3e5780601f10610f1357610100808354040283529160200191610f3e565b820191906000526020600020905b815481529060010190602001808311610f2157829003601f168201915b505050505090806003018054610f5390611ce6565b80601f0160208091040260200160405190810160405280929190818152602001828054610f7f90611ce6565b8015610fcc5780601f10610fa157610100808354040283529160200191610fcc565b820191906000526020600020905b815481529060010190602001808311610faf57829003601f168201915b5050506004840154600585015460068601546007870180549697939692955060ff909116935090610ffc90611ce6565b80601f016020809104026020016040519081016040528092919081815260200182805461102890611ce6565b80156110755780601f1061104a57610100808354040283529160200191611075565b820191906000526020600020905b81548152906001019060200180831161105857829003601f168201915b5050505050905088565b600080548190818061109083611d20565b909155506000818152600260205260409020818155909150600181016110b68782611d88565b50600281016110c58682611d88565b506003810180546001600160a01b0319163317905583516110ef90600483019060208701906114b7565b506000600580830182905542600684015560078301805460ff19166001908117909155338084526020928352604080852080549384018155855292909320018490555183907faef1fcdf962a03943b677ae3b92ef1b34c972aeef794ed6e9ba5f599b461883b90611161908a90611e48565b60405180910390a350949350505050565b600082600081118015611186575060005481105b6111a25760405162461bcd60e51b815260040161029990611c35565b600084815260026020908152604080832060040180548251818502810185019093528083529192909190849084015b8282101561127d5783829060005260206000200180546111f090611ce6565b80601f016020809104026020016040519081016040528092919081815260200182805461121c90611ce6565b80156112695780601f1061123e57610100808354040283529160200191611269565b820191906000526020600020905b81548152906001019060200180831161124c57829003601f168201915b5050505050815260200190600101906111d1565b50505050905060005b81518110156112da5784805190602001208282815181106112a9576112a9611cd0565b602002602001015180519060200120036112c8576001935050506112e1565b806112d281611d20565b915050611286565b5060009250505b5092915050565b816000811180156112fa575060005481105b6113165760405162461bcd60e51b815260040161029990611c35565b60008381526002602052604090206003015483906001600160a01b031633146113515760405162461bcd60e51b815260040161029990611c63565b60008481526002602090815260409091208451611376926004909201918601906114b7565b50837f59c48e92ea9eb7adb4fb70e51d4cb89099aa956fa9455ebca798913522b47fad846040516113a79190611e7d565b60405180910390a250505050565b6001600160a01b03811660009081526005602090815260409182902080548351818402810184019094528084526060939283018282801561141557602002820191906000526020600020905b815481526020019060010190808311611401575b50505050509050919050565b6003602052816000526040600020818154811061143d57600080fd5b906000526020600020906008020160009150915050806000015490806001015490806002018054610ec590611ce6565b604051806101000160405280600081526020016000815260200160608152602001606081526020016000801916815260200160008152602001600015158152602001606081525090565b8280548282559060005260206000209081019282156114fd579160200282015b828111156114fd57825182906114ed9082611d88565b50916020019190600101906114d7565b5061150992915061150d565b5090565b80821115611509576000611521828261152a565b5060010161150d565b50805461153690611ce6565b6000825580601f10611546575050565b601f0160209004906000526020600020908101906115649190611567565b50565b5b808211156115095760008155600101611568565b60006020828403121561158e57600080fd5b5035919050565b6000806000606084860312156115aa57600080fd5b505081359360208301359350604090920135919050565b6000815180845260005b818110156115e7576020818501810151868301820152016115cb565b506000602082860101526020601f19601f83011685010191505092915050565b60006020808301818452808551808352604092508286019150828160051b87010184880160005b838110156116dc57603f198984030185528151610100815185528882015189860152878201518189870152611665828701826115c1565b9150506060808301518683038288015261167f83826115c1565b92505050608080830151818701525060a080830151818701525060c0808301516116ac8288018215159052565b505060e080830151925085820381870152506116c881836115c1565b96890196945050509086019060010161162e565b509098975050505050505050565b600082825180855260208086019550808260051b84010181860160005b8481101561173557601f198684030189526117238383516115c1565b98840198925090830190600101611707565b5090979650505050505050565b60e08152600061175560e083018a6115c1565b8281036020840152611767818a6115c1565b6001600160a01b03891660408501528381036060850152905061178a81886116ea565b6080840196909652505060a0810192909252151560c090910152949350505050565b87815260e0602082015260006117c560e08301896115c1565b82810360408401526117d781896115c1565b6001600160a01b039790971660608401525050608081019390935260a0830191909152151560c0909101529392505050565b634e487b7160e01b600052604160045260246000fd5b604051601f8201601f1916810167ffffffffffffffff8111828210171561184857611848611809565b604052919050565b600067ffffffffffffffff83111561186a5761186a611809565b61187d601f8401601f191660200161181f565b905082815283838301111561189157600080fd5b828260208301376000602084830101529392505050565b600082601f8301126118b957600080fd5b6118c883833560208501611850565b9392505050565b600080604083850312156118e257600080fd5b82359150602083013567ffffffffffffffff81111561190057600080fd5b61190c858286016118a8565b9150509250929050565b80356001600160a01b038116811461192d57600080fd5b919050565b6000806040838503121561194557600080fd5b61194e83611916565b946020939093013593505050565b6000806000806080858703121561197257600080fd5b84359350602085013567ffffffffffffffff8082111561199157600080fd5b61199d888389016118a8565b945060408701359150808211156119b357600080fd5b508501601f810187136119c557600080fd5b6119d487823560208401611850565b949793965093946060013593505050565b60006101008a8352896020840152806040840152611a058184018a6115c1565b90508281036060840152611a1981896115c1565b90508660808401528560a084015284151560c084015282810360e0840152611a4181856115c1565b9b9a5050505050505050505050565b600082601f830112611a6157600080fd5b8135602067ffffffffffffffff80831115611a7e57611a7e611809565b8260051b611a8d83820161181f565b9384528581018301938381019088861115611aa757600080fd5b84880192505b85831015611ae357823584811115611ac55760008081fd5b611ad38a87838c01016118a8565b8352509184019190840190611aad565b98975050505050505050565b600080600060608486031215611b0457600080fd5b833567ffffffffffffffff80821115611b1c57600080fd5b611b28878388016118a8565b94506020860135915080821115611b3e57600080fd5b611b4a878388016118a8565b93506040860135915080821115611b6057600080fd5b50611b6d86828701611a50565b9150509250925092565b60008060408385031215611b8a57600080fd5b82359150602083013567ffffffffffffffff811115611ba857600080fd5b61190c85828601611a50565b600060208284031215611bc657600080fd5b6118c882611916565b6020808252825182820181905260009190848201906040850190845b81811015611c0757835183529284019291840191600101611beb565b50909695505050505050565b60008060408385031215611c2657600080fd5b50508035926020909101359150565b6020808252601490820152731059d95b9d08191bd95cc81b9bdd08195e1a5cdd60621b604082015260600190565b6020808252601190820152702737ba1030b3b2b73a1031b932b0ba37b960791b604082015260600190565b634e487b7160e01b600052601160045260246000fd5b80820180821115611cb757611cb7611c8e565b92915050565b81810381811115611cb757611cb7611c8e565b634e487b7160e01b600052603260045260246000fd5b600181811c90821680611cfa57607f821691505b602082108103611d1a57634e487b7160e01b600052602260045260246000fd5b50919050565b600060018201611d3257611d32611c8e565b5060010190565b601f821115611d8357600081815260208120601f850160051c81016020861015611d605750805b601f850160051c820191505b81811015611d7f57828155600101611d6c565b5050505b505050565b815167ffffffffffffffff811115611da257611da2611809565b611db681611db08454611ce6565b84611d39565b602080601f831160018114611deb5760008415611dd35750858301515b600019600386901b1c1916600185901b178555611d7f565b600085815260208120601f198616915b82811015611e1a57888601518255948401946001909101908401611dfb565b5085821015611e385787850151600019600388901b60f8161c191681555b5050505050600190811b01905550565b6020815260006118c860208301846115c1565b604081526000611e6e60408301856115c1565b90508260208301529392505050565b6020815260006118c860208301846116ea56fea2646970667358221220872620f97c1e5caf53e5f84af98575adec03d6dcb732eac28c8c467df13c321c64736f6c63430008140033",
  "linkReferences": {},
  "deployedLinkReferences": {}
}